{
  "contractName": "Customer",
  "abi": [
    {
      "inputs": [],
      "stateMutability": "nonpayable",
      "type": "constructor"
    },
    {
      "anonymous": false,
      "inputs": [
        {
          "indexed": false,
          "internalType": "uint256",
          "name": "idOrder",
          "type": "uint256"
        }
      ],
      "name": "OrderRaisedOrUpdated",
      "type": "event"
    },
    {
      "inputs": [
        {
          "internalType": "bytes32",
          "name": "itemName",
          "type": "bytes32"
        },
        {
          "internalType": "uint256",
          "name": "quantity",
          "type": "uint256"
        }
      ],
      "name": "purchaseItem",
      "outputs": [],
      "stateMutability": "nonpayable",
      "type": "function"
    },
    {
      "inputs": [
        {
          "internalType": "uint256",
          "name": "idOrder",
          "type": "uint256"
        }
      ],
      "name": "recieveItem",
      "outputs": [],
      "stateMutability": "nonpayable",
      "type": "function"
    },
    {
      "inputs": [
        {
          "internalType": "uint256",
          "name": "idOrder",
          "type": "uint256"
        }
      ],
      "name": "getOrderDetails",
      "outputs": [
        {
          "internalType": "bytes32",
          "name": "",
          "type": "bytes32"
        },
        {
          "internalType": "uint256",
          "name": "",
          "type": "uint256"
        },
        {
          "internalType": "bool",
          "name": "",
          "type": "bool"
        }
      ],
      "stateMutability": "view",
      "type": "function",
      "constant": true
    },
    {
      "inputs": [],
      "name": "getNumberOfItemsPurchased",
      "outputs": [
        {
          "internalType": "uint256",
          "name": "",
          "type": "uint256"
        }
      ],
      "stateMutability": "view",
      "type": "function",
      "constant": true
    },
    {
      "inputs": [],
      "name": "getNumberOfItemsReceived",
      "outputs": [
        {
          "internalType": "uint256",
          "name": "",
          "type": "uint256"
        }
      ],
      "stateMutability": "view",
      "type": "function",
      "constant": true
    }
  ],
  "bytecode": "0x608060405234801561001057600080fd5b506040518060400160405280600181526020017f4a6f686e20536e6f7700000000000000000000000000000000000000000000008152506002600080815260200190815260200160002060008201518160000155602082015181600101559050506104f0806100806000396000f3fe608060405234801561001057600080fd5b50600436106100575760003560e01c80630657de331461005c57806377c3d81b1461007857806394193dd214610096578063d103b02c146100b2578063ec7dd7bb146100d0575b600080fd5b61007660048036038101906100719190610314565b610102565b005b610080610183565b60405161008d9190610350565b60405180910390f35b6100b060048036038101906100ab91906103a1565b61018d565b005b6100ba61026c565b6040516100c79190610350565b60405180910390f35b6100ea60048036038101906100e59190610314565b610275565b6040516100f99392919061040b565b60405180910390f35b6001600081548092919061011590610471565b919050555060016003600083815260200190815260200160002060040160006101000a81548160ff0219169083151502179055507ffd4b9f33f750059f7f0fea80cc0091c7788f7b097feddbd26b1e87482cad21f3816040516101789190610350565b60405180910390a150565b6000600154905090565b60008060008154809291906101a190610471565b9190505590506040518060a001604052808281526020016000815260200184815260200183815260200160001515815250600360008381526020019081526020016000206000820151816000015560208201518160010155604082015181600201556060820151816003015560808201518160040160006101000a81548160ff0219169083151502179055509050507ffd4b9f33f750059f7f0fea80cc0091c7788f7b097feddbd26b1e87482cad21f38160405161025f9190610350565b60405180910390a1505050565b60008054905090565b6000806000600360008581526020019081526020016000206002015460036000868152602001908152602001600020600301546003600087815260200190815260200160002060040160009054906101000a900460ff169250925092509193909250565b600080fd5b6000819050919050565b6102f1816102de565b81146102fc57600080fd5b50565b60008135905061030e816102e8565b92915050565b60006020828403121561032a576103296102d9565b5b6000610338848285016102ff565b91505092915050565b61034a816102de565b82525050565b60006020820190506103656000830184610341565b92915050565b6000819050919050565b61037e8161036b565b811461038957600080fd5b50565b60008135905061039b81610375565b92915050565b600080604083850312156103b8576103b76102d9565b5b60006103c68582860161038c565b92505060206103d7858286016102ff565b9150509250929050565b6103ea8161036b565b82525050565b60008115159050919050565b610405816103f0565b82525050565b600060608201905061042060008301866103e1565b61042d6020830185610341565b61043a60408301846103fc565b949350505050565b7f4e487b7100000000000000000000000000000000000000000000000000000000600052601160045260246000fd5b600061047c826102de565b91507fffffffffffffffffffffffffffffffffffffffffffffffffffffffffffffffff8214156104af576104ae610442565b5b60018201905091905056fea2646970667358221220f2ac6d4ba7ccdb29917c97e6684bce3542e869f1fe72e6f19ebe7c2e7dcb46ea64736f6c634300080b0033",
  "immutableReferences": {},
  "source": "// SPDX-License-Identifier: MIT\r\npragma solidity >0.4.17;\r\n\r\ncontract Customer {\r\n  event OrderRaisedOrUpdated(uint idOrder);\r\n\r\n  struct AvailableCustomer {\r\n    uint idCustomer;\r\n    bytes32 customerName;\r\n  }\r\n\r\n  struct Orderlog {\r\n    uint idOrder;\r\n    uint idCustomer;\r\n    bytes32 itemName;\r\n    uint quantity;\r\n    bool status;\r\n  }\r\n\r\n  uint numberOfItemsPurchased;\r\n  uint numberOfItemsReceived;\r\n\r\n  mapping (uint => AvailableCustomer) customers;\r\n  mapping (uint => Orderlog) orderLogs;\r\n\r\n\r\n  constructor() {\r\n      customers[0] = AvailableCustomer(1, \"John Snow\");\r\n  }\r\n\r\n\r\n  function purchaseItem(bytes32 itemName, uint quantity) public {\r\n    uint idOrder = numberOfItemsPurchased++;\r\n    orderLogs[idOrder] = Orderlog(idOrder, 0, itemName, quantity, false);\r\n    emit OrderRaisedOrUpdated(idOrder);\r\n  }\r\n\r\n  function recieveItem(uint idOrder) public {\r\n      numberOfItemsReceived++;\r\n      orderLogs[idOrder].status = true;\r\n      emit OrderRaisedOrUpdated(idOrder);\r\n  }\r\n\r\n  function getOrderDetails(uint idOrder) view public returns (bytes32, uint, bool){\r\n    return (orderLogs[idOrder].itemName, orderLogs[idOrder].quantity, orderLogs[idOrder].status);\r\n  }\r\n\r\n  function getNumberOfItemsPurchased() view public returns (uint) {\r\n    return numberOfItemsPurchased;\r\n  }\r\n\r\n  function getNumberOfItemsReceived() view public returns (uint) {\r\n    return numberOfItemsReceived;\r\n  }\r\n\r\n}",
  "sourcePath": "D:\\Blockchain Powered E-commerce\\backend\\contracts\\Customer.sol",
  "compiler": {
    "name": "solc",
    "version": "0.8.11+commit.d7f03943.Emscripten.clang"
  },
  "schemaVersion": "3.4.4",
  "updatedAt": "2022-01-07T05:03:08.846Z",
  "networkType": "ethereum",
  "devdoc": {
    "kind": "dev",
    "methods": {},
    "version": 1
  },
  "userdoc": {
    "kind": "user",
    "methods": {},
    "version": 1
  }
}