{
  "contractName": "Supplier",
  "abi": [
    {
      "anonymous": false,
      "inputs": [
        {
          "indexed": false,
          "internalType": "uint256",
          "name": "idItem",
          "type": "uint256"
        }
      ],
      "name": "ItemAdded",
      "type": "event"
    },
    {
      "anonymous": false,
      "inputs": [
        {
          "indexed": false,
          "internalType": "uint256",
          "name": "idOfCustomer",
          "type": "uint256"
        },
        {
          "indexed": false,
          "internalType": "uint256",
          "name": "idOrder",
          "type": "uint256"
        },
        {
          "indexed": false,
          "internalType": "bool",
          "name": "status",
          "type": "bool"
        }
      ],
      "name": "ProcessAnOrder",
      "type": "event"
    },
    {
      "inputs": [
        {
          "internalType": "bytes32",
          "name": "itemName",
          "type": "bytes32"
        },
        {
          "internalType": "uint256",
          "name": "price",
          "type": "uint256"
        }
      ],
      "name": "addItem",
      "outputs": [],
      "stateMutability": "nonpayable",
      "type": "function"
    },
    {
      "inputs": [
        {
          "internalType": "uint256",
          "name": "idOrder",
          "type": "uint256"
        },
        {
          "internalType": "uint256",
          "name": "idCustomer",
          "type": "uint256"
        }
      ],
      "name": "processOrder",
      "outputs": [],
      "stateMutability": "nonpayable",
      "type": "function"
    },
    {
      "inputs": [
        {
          "internalType": "uint256",
          "name": "idItem",
          "type": "uint256"
        }
      ],
      "name": "getItem",
      "outputs": [
        {
          "internalType": "bytes32",
          "name": "",
          "type": "bytes32"
        },
        {
          "internalType": "uint256",
          "name": "",
          "type": "uint256"
        }
      ],
      "stateMutability": "view",
      "type": "function",
      "constant": true
    },
    {
      "inputs": [
        {
          "internalType": "uint256",
          "name": "idOrder",
          "type": "uint256"
        }
      ],
      "name": "getStatus",
      "outputs": [
        {
          "internalType": "bool",
          "name": "",
          "type": "bool"
        }
      ],
      "stateMutability": "view",
      "type": "function",
      "constant": true
    },
    {
      "inputs": [],
      "name": "getTotalNumberOfAvailableItems",
      "outputs": [
        {
          "internalType": "uint256",
          "name": "",
          "type": "uint256"
        }
      ],
      "stateMutability": "view",
      "type": "function",
      "constant": true
    },
    {
      "inputs": [],
      "name": "getTotalNumberOfOrdersProcessed",
      "outputs": [
        {
          "internalType": "uint256",
          "name": "",
          "type": "uint256"
        }
      ],
      "stateMutability": "view",
      "type": "function",
      "constant": true
    }
  ],
  "bytecode": "0x608060405234801561001057600080fd5b506105b6806100206000396000f3fe608060405234801561001057600080fd5b50600436106100625760003560e01c80633129e773146100675780633946abfd146100985780635c622a0e146100b6578063804544c4146100e6578063941e53a714610102578063e60451f414610120575b600080fd5b610081600480360381019061007c9190610356565b61013c565b60405161008f9291906103ab565b60405180910390f35b6100a0610176565b6040516100ad91906103d4565b60405180910390f35b6100d060048036038101906100cb9190610356565b610180565b6040516100dd919061040a565b60405180910390f35b61010060048036038101906100fb9190610425565b6101ad565b005b61010a61026d565b60405161011791906103d4565b60405180910390f35b61013a60048036038101906101359190610491565b610276565b005b6000806002600084815260200190815260200160002060010154600260008581526020019081526020016000206002015491509150915091565b6000600154905090565b60006003600083815260200190815260200160002060020160009054906101000a900460ff169050919050565b60405180606001604052808281526020018381526020016001151581525060036000848152602001908152602001600020600082015181600001556020820151816001015560408201518160020160006101000a81548160ff0219169083151502179055509050506001600081548092919061022890610500565b91905055507f13c5c248f81aca9d8fa3643449bd2debad3b6ec68931a70443181d3e60352ee78183600160405161026193929190610549565b60405180910390a15050565b60008054905090565b600080600081548092919061028a90610500565b919050559050604051806060016040528082815260200184815260200183815250600260008381526020019081526020016000206000820151816000015560208201518160010155604082015181600201559050507f186760a37e06b130959978c68b5c592841caf4f64de1dc960b2c54cf454ca9dd8160405161030e91906103d4565b60405180910390a1505050565b600080fd5b6000819050919050565b61033381610320565b811461033e57600080fd5b50565b6000813590506103508161032a565b92915050565b60006020828403121561036c5761036b61031b565b5b600061037a84828501610341565b91505092915050565b6000819050919050565b61039681610383565b82525050565b6103a581610320565b82525050565b60006040820190506103c0600083018561038d565b6103cd602083018461039c565b9392505050565b60006020820190506103e9600083018461039c565b92915050565b60008115159050919050565b610404816103ef565b82525050565b600060208201905061041f60008301846103fb565b92915050565b6000806040838503121561043c5761043b61031b565b5b600061044a85828601610341565b925050602061045b85828601610341565b9150509250929050565b61046e81610383565b811461047957600080fd5b50565b60008135905061048b81610465565b92915050565b600080604083850312156104a8576104a761031b565b5b60006104b68582860161047c565b92505060206104c785828601610341565b9150509250929050565b7f4e487b7100000000000000000000000000000000000000000000000000000000600052601160045260246000fd5b600061050b82610320565b91507fffffffffffffffffffffffffffffffffffffffffffffffffffffffffffffffff82141561053e5761053d6104d1565b5b600182019050919050565b600060608201905061055e600083018661039c565b61056b602083018561039c565b61057860408301846103fb565b94935050505056fea26469706673582212208b41b0547bab0e1c4698fcf05ee84a0ec8c393cd82107dc58d3fdd39ef6cae8664736f6c634300080b0033",
  "immutableReferences": {},
  "source": "// SPDX-License-Identifier: MIT\r\npragma solidity >0.4.17;\r\n\r\ncontract Supplier {\r\n\r\n  event ItemAdded(uint idItem);\r\n  event ProcessAnOrder(uint idOfCustomer, uint idOrder, bool status);\r\n\r\n  struct Item {\r\n    uint idItem;\r\n    bytes32 itemName;\r\n    uint price;\r\n  }\r\n\r\n  struct Orderlog {\r\n    uint idOfCustomer;\r\n    uint idOrder; \r\n    bool status;\r\n  }\r\n\r\n  uint numberOfItemsAvailableForSale;\r\n  uint numberOfOrdersProcessed;\r\n\r\n  mapping (uint => Item) items;\r\n  mapping (uint => Orderlog) orderLogs;\r\n\r\n\r\n  function addItem(bytes32 itemName, uint price) public {\r\n    uint idItem = numberOfItemsAvailableForSale++;\r\n    items[idItem] = Item(idItem, itemName, price);\r\n    emit ItemAdded(idItem);\r\n  }\r\n\r\n  function processOrder(uint idOrder, uint idCustomer) public {\r\n    orderLogs[idOrder] = Orderlog(idCustomer, idOrder, true);\r\n    numberOfOrdersProcessed ++;\r\n    emit ProcessAnOrder(idCustomer, idOrder, true);\r\n  }\r\n\r\n\r\n  function getItem(uint idItem) view public returns (bytes32, uint){\r\n    return (items[idItem].itemName, items[idItem].price);\r\n  }\r\n\r\n  function getStatus(uint idOrder) view public returns (bool) {\r\n    return (orderLogs[idOrder].status);\r\n  }\r\n\r\n  function getTotalNumberOfAvailableItems() view public returns (uint) {\r\n    return numberOfItemsAvailableForSale;\r\n  }\r\n\r\n  function getTotalNumberOfOrdersProcessed() view public returns (uint){\r\n    return numberOfOrdersProcessed;\r\n  }\r\n\r\n}",
  "sourcePath": "D:\\Blockchain Powered E-commerce\\backend\\contracts\\Supplier.sol",
  "compiler": {
    "name": "solc",
    "version": "0.8.11+commit.d7f03943.Emscripten.clang"
  },
  "schemaVersion": "3.4.4",
  "updatedAt": "2022-01-07T05:03:08.841Z",
  "networkType": "ethereum",
  "devdoc": {
    "kind": "dev",
    "methods": {},
    "version": 1
  },
  "userdoc": {
    "kind": "user",
    "methods": {},
    "version": 1
  }
}